:0200000480007A
:100000003741000213010100B70100029381010092
:10001000B75500809385051F3756008013060626C6
:10002000B70600029386060039A083A2050023A02C
:10003000560091059106E3EAC5FEB70500029385D7
:100040000507373600021306064F21A023A005003E
:100050009105E3EDC5FEB7000080E7804007B700DB
:100060000080E7804007B7500080E78080BC7300C5
:100070005010F5BF8280000000000000000000006A
:100080000000000000000000000000000000000070
:100090000000000000000000000000000000000060
:1000A0000000000000000000000000000000000050
:1000B0000000000000000000000000000000000040
:1000C0006F000014197106C20AC40EC612C816CAFF
:1000D0001ACC1ECE22D026D22AD42ED632D836DA48
:1000E0003ADC3EDEC2C0C6C2CAC4CEC6D2C8D6CA78
:1000F000DACCDECEE2D0E6D2EAD4EED6F2D8F6DA28
:10010000FADCFEDE970000009380E00482909240CB
:100110002241B2414242D2426243F24302549254DB
:100120002255B2554256D2566257F2570648964863
:100130002649B649464AD64A664BF64B065C965C5B
:10014000265DB65D465ED65E665FF65F096173004A
:10015000203001A0000000000000000000000000AE
:10016000000000000000000000000000000000008F
:10017000000000000000000000000000000000007F
:10018000000000000000000000000000000000006F
:10019000000000000000000000000000000000005F
:1001A000000000000000000000000000000000004F
:1001B000000000000000000000000000000000003F
:1001C000000000000000000000000000000000002F
:1001D000000000000000000000000000000000001F
:1001E000000000000000000000000000000000000F
:1001F00000000000000000000000000000000000FF
:10020000130181F806C216C41AC61EC822CA26CC1B
:100210002ACE2ED032D236D43AD63ED842DA46DC76
:100220004ADECEC0D2C2D6C4DAC6DEC8E2CAE6CC46
:10023000EACEEED0F2D2F6D4FAD6FED8F3220030CF
:1002400096DA9702008283A2A2E723A022007325F8
:100250002034F32510341356F50109CA2EC01701B6
:100260000082032121DAEF40303B0DA091052EC022
:10027000AD4263195500170100820321A1D8EF4058
:10028000F01E29A00290FDBF0290FDBF170300825F
:10029000032303E303210300824273901234D652F6
:1002A000739002309240A2423243C2435244E2442D
:1002B000724582551256A2563257C2575258E258CA
:1002C00072598649164AA64A364BC64B564CE64CDE
:1002D000764D865D165EA65E365FC65F13018107AA
:1002E0007300203013000000130000001300000012
:1002F00013000000130000001300000013000000B2
:10030000170100820321C1DB02418240D652739063
:100310000230A2423243C2435244E2447245825503
:100320001256A2563257C2575258E258725986494D
:10033000164AA64A364BC64B564CE64C764D865D61
:10034000165EA65E365FC65F1301810782801300CA
:100350000000130000001300000013000000130051
:100360000000130000001300000013000000130041
:100370000000130000001300000013000000130031
:100380000000130000001300000013000000130021
:100390000000130000001300000013000000130011
:1003A0000000130000001300000013000000130001
:1003B00000001300000013000000130000001300F1
:1003C00000001300000013000000130000001300E1
:1003D00000001300000013000000130000001300D1
:1003E00000001300000013000000130000001300C1
:1003F00000001300000013000000130000000100C3
:10040000F3220030130380181203B3E26200711567
:1004100023205500130585FA10C12115232005005E
:10042000814263870200711523200500FD12D5BFAC
:1004300071150CC182800000000000000000000067
:1004400000000000000000000000000000000000AC
:10045000000000000000000000000000000000009C
:10046000000000000000000000000000000000008C
:10047000000000000000000000000000000000007C
:10048000000000000000000000000000000000006C
:10049000000000000000000000000000000000005C
:1004A000000000000000000000000000000000004C
:1004B000000000000000000000000000000000003C
:1004C000000000000000000000000000000000002C
:1004D000000000001303F00013070500637EC30251
:1004E0009377F7006390070A63920508937606FFF7
:1004F0001376F600B386E6002320B7002322B70068
:100500002324B7002326B70013070701E366D7FEAD
:100510006314060067800000B306C340939626006C
:1005200097020000B38656006780C6002307B70015
:10053000A306B7002306B700A305B7002305B7003D
:10054000A304B7002304B700A303B7002303B70035
:10055000A302B7002302B700A301B7002301B7002D
:10056000A300B7002300B7006780000093F5F50FE4
:1005700093968500B3E5D50093960501B3E5D500C4
:100580006FF0DFF69396270097020000B3865600BF
:1005900093820000E78006FA93800200938707FFAA
:1005A0003307F7403306F600E378C3F66FF0DFF366
:1005B000B7070100637AF5029337051093B7170068
:1005C00093973700130700023307F7403355F500C0
:1005D000975700009387C7AAB387A70003C50700F2
:1005E0003305A74067800000B70700016374F50278
:1005F000930700013355F50097570000938747A8EC
:10060000B387A70003C50700130700013305A74000
:1006100067800000930780013355F500975700006D
:10062000938707A6B387A70003C5070013078000B9
:100630003305A74067800000814681A0939716008C
:10064000B69713973700B707000293870713BA9737
:10065000375700801307C702832807000328470085
:1006600008474C47104B584B23A0170123A2070102
:1006700088C7CCC790CBD8CB85069147E3D0D7FCB1
:10068000B707000293870713054798C3094798CF18
:1006900098DB0D47B8C7B8D382800147914763C143
:1006A000E70293171700BA9793963700B70700022F
:1006B00093870713B69783C7870089C70507F9BFD4
:1006C0000145828005458280814711A08507114739
:1006D0006343F704139717003E97931637003707C5
:1006E00000021307071336970347470165D33707FF
:1006F00000021307071336970345870061D93707B0
:1007000000021307071336978356A70003576701A4
:10071000E37ED7FA82800145828023100600956728
:100720006369F502FD17AE9763D0A702856763067C
:10073000F5048D676309F5029167630EF502896719
:100740006362F50481470DA091472310F60005452B
:1007500082809307E5FFC207C1830547E368F7FC82
:100760008547014729A8854709677D17BA9563CE54
:10077000A500054729A08547C5BF8547014733E543
:10078000E700828081470147DDBF0147CDBF2A8650
:1007900081461305F00F05A806051375F50F8507AB
:1007A00093F7F70F1D47636DF700131785016187F6
:1007B000E35407FE0607134717031375F70FC5B772
:1007C000850693F6F60F63F9B600B307D60083C724
:1007D00007003D8D8147F9B78280411106C622C4CA
:1007E0002A84230905088547A309F50889451305C7
:1007F0002509713F230AA408A30A0408230B04084F
:100800008945130554096137A30BA408230C040878
:10081000A30C0408894513058409953F230DA408FA
:10082000A5472317F400B240224441018280011100
:1008300006CE22CC26CA4AC84EC652C456C22A8404
:100840002E8AB28983D40500144293871400C2070C
:10085000C183330795002309D7085842938A24009F
:10086000C20A93DA0A01AA972389E70813850409C3
:100870002295138934004209135909018945090554
:100880003937A29A2389AA0803D7E900938744003D
:10089000C207C1832183B30624012389E60803D755
:1008A000E900938A5400C20A93DA0A01A2972389C5
:1008B000E7081305090922951389640042091359B1
:1008C000090189450905E135A29A2389AA0803D7B8
:1008D000C90093877400C207C1832183B306240132
:1008E0002389E60803D7C90093898400C20993D9F4
:1008F0000901A2972389E708130509092295A50490
:10090000C204C1808945090559354E942309A408BC
:1009100023109A00F2406244D2444249B249224A2A
:10092000924A05618280797106D622D44AD04ECE91
:100930002E84B289368985676308F50663F6A702B7
:100940008D67630AF50A91676315F51E9397260074
:10095000C207C18313070008636CF71426D252CC78
:1009600056CA014A81446DAA89476306F5028D473C
:100970006311F51C93D786002389F508A309D408D1
:100980008945130524092135230AA4088D47231717
:10099000F400054521A02E8589350545B250225425
:1009A0000259F2494561828093973600B697C20793
:1009B000C183130700086367F70026D223170100DD
:1009C00081440DA0239705000145C9BF139614006B
:1009D00026960E064E969305E1002285893D8504F4
:1009E000C204C180E3E424FF8357E1002317F4002D
:1009F0000545925465B793971600B697C207C18311
:100A0000130700086368F70026D252CC56CA014A81
:100A10008144A1A823970500014549B783D6A700C3
:100A20001387140042074183A182330694002309EF
:100A3000D608938A2400C20A93DA0A0183C6A70063
:100A4000B307E4002389D70813850409229593840A
:100A50001A00C204C18089450905153BA29A238961
:100A6000AA08050A420A135A0A01637C2A0393174B
:100A70001A00D2978E07CE9703C7870045F3938756
:100A80001400C207C18333079400FD562309D70819
:100A9000938A2400C20A93DA0A01A2972389D7080D
:100AA00065B72317940005459254624AD24AFDB5B2
:100AB000239705000145DDB593171A00D2978E07DD
:100AC000CE9793861400C206C18203C6470133073E
:100AD00094002309C70803D667011387240042073F
:100AE00041832182A2962389C608938A3400C20AD0
:100AF00093DA0A0183C66701B307E4002389D708A4
:100B00001385DA0822959104C204C1808D45090538
:100B1000BD39A29A2389AA08050A420A135A0A0172
:100B2000E36C2AF92317940005459254624AD24A8D
:100B3000B5B58967636EF504FD17CA9763CCA70442
:100B40001377F50F63642701014589BD93171700DB
:100B5000BA978E07BE9983C789008DE3FD57230995
:100B6000F408A309F4088945130524090D31230A63
:100B7000A4088D472317F40005450DB583D7A900B8
:100B8000A1832309F40883C7A900A309F408E1BFDE
:100B9000014529B5014519B583D7A500BDC7011188
:100BA00006CE22CC26CA4AC84EC62A892E84B289CD
:100BB000B6841567636DE5047D1736976341A70614
:100BC00011476390E7068D4513052401C936834715
:100BD0005401639AA7041376F90F83472401B336AF
:100BE000F0008347340103474401A2075D8F637E11
:100BF000960293171600B2978E073386F900230AE0
:100C0000D600231BE600054521A001458280014551
:100C1000F2406244D2444249B249056182800145B2
:100C2000C5BF0145F5B70145E5B70145D5B7B707DC
:100C300005001307B008D8CB0547D8D723A2070271
:100C4000B7070600984B1367074098CB984B13677C
:100C5000072098CBD84B13670720D8CB8280370763
:100C600005005C4BF59B5CCB01A0B707490023A2B4
:100C70000700370749000146814610C754C73707A8
:100C800049002166130606D0814610CB54CB984309
:100C90001367170098C393070008F3A747308280B3
:100CA00003570504854763F3E70283471500A2074E
:100CB00003480500B3E7070111486307070301472D
:100CC0000945638BA7020D456384A70423800500B3
:100CD000A380050085472381F500A3810500914786
:100CE0002390F5040545828003483500034725001D
:100CF00013158800498FE9B789472380F500A38041
:100D000005002381D5008D472390F5040545828099
:100D10006378D70893171700BA978E073E968D47CA
:100D20002380F500A38005002381E5002183A381B2
:100D3000E5005C422382F5008347A600A382F5000C
:100D40008357A600A1832383F5008347E600A3838E
:100D5000F5008357E600A1832384F5008347C6008E
:100D6000A384F5008357C600A1832385F50083473C
:100D70008600A385F5001C422386F50083474601C3
:100D8000A386F500834766012387F5008357660134
:100D9000A183A387F500C1472390F5040545828010
:100DA0000145828085472300F500A300050089479F
:100DB0002310F50405458280B7070400BC43858BEA
:100DC000A9C3B7070400D847799BD8C7C8C337273A
:100DD00008001307878298C3FD158CC737072208C0
:100DE0001307C702D8C713070014B8C33707000298
:100DF00085462324D710D84713671700D8C7054561
:100E0000828001458280B7070400BC43C18B99CB27
:100E1000370704003C4393E717003CC3B7070002C1
:100E200023A407108280B7060500DC4E93E7470035
:100E3000DCCEB7070500114723A4E740B727080019
:100E4000938707809843799B98C37D57D8CF984361
:100E500037F6FFEF1306F6BF718F98C3984398C318
:100E600098431367C70098C398431367170298C342
:100E700098431367C70098C30966D0C313071008C7
:100E800098C73757E801130707803357A70242076F
:100E90004183D8C798431367170098C3DC4ED18F9E
:100EA000DCCEB717050003A7C7C0B706F1FFFD16D4
:100EB000758F23A6E7C003A7C7C0C166558F23A6B9
:100EC000E7C003A7C7C0B7060400558F23A6E7C035
:100ED0008280370705005C4793E707025CC7B707C6
:100EE000050003A78740B7061000558F23A4E740ED
:100EF00082802A8681461305F00F05A80605137522
:100F0000F50F850793F7F70F1D47636DF70013176C
:100F100085016187E35407FE06071347170313751E
:100F2000F70FC5B7850693F6F60F63F9B600B3075A
:100F3000D60083C707003D8D8147F9B782800CC179
:100F4000A304C50023220500230405002305050092
:100F500082808347A5000347950063F7E7021841A5
:100F60008607BA972390B7005C41BE954CC1834772
:100F7000A50085072305F5005C410347A50033D58F
:100F8000E70242054181828058411C418346850029
:100F90008606B69783D60700158F58C12390B700F1
:100FA0005C41BE954CC1834785008507034795008A
:100FB000B3E7E7022304F500C1B7411106C62310C9
:100FC0000500231105004146930505011105853FE4
:100FD000B24041018280411106C622C42A842310F6
:100FE000B5001105BD372311A400B24022444101D0
:100FF000828095CD411106C622C426C24AC02A84E9
:10100000AE84328901EA0145B24022449244024949
:10101000410182805D372318940223192403230C95
:101020000402231A0402231B04020545F1BF0145F3
:101030008280835725001307004BB387E7020567BB
:101040007D17B3D7E702035705038356250309CB62
:10105000C207C183B387D70233D7E7024207418370
:10106000231AE5028547230CF5028567938787EDF0
:1010700063F7E700230C0502231B050282808567C6
:101080009387C7DA63F7E7009307401F231BF50236
:1010900082809307702563E5E700231B05028280A9
:1010A0009307401F3307F702B777FBFF938707C209
:1010B0003E978567938747B53357F702231BE502B1
:1010C0008280B737080093870780DC4F858B91C7F4
:1010D000B7370800054723ACE780B7370800938788
:1010E0000780DC4F93F7070899CBB75708000547EF
:1010F000F8C3B73708001307000823ACE7808280E5
:10110000370705005C4F8565CD8F5CCF5C4FA166CE
:10111000D58F5CCF5C4F93E727005CCFB7170500F6
:1011200083A607C093F6F6CF23A0D7C083A607C037
:1011300093E6063023A0D7C083A687C093F6F6CFE8
:1011400023A4D7C0375608008566938606C054DEB0
:10115000545E93F6F6F893E6360354DEB7060500C0
:101160003706002023A0C640504F1366060450CF18
:10117000504F1366260050CF03A707C0719B23A0D2
:10118000E7C003A707C01367270023A0E7C003A792
:1011900047C0719B23A2E7C003A747C0136737006E
:1011A00023A2E7C003A787C0719B23A4E7C03737FA
:1011B000080083270781F99B2328F780854723248C
:1011C000F780B77702009387F70F2322F780930702
:1011D000F03F232CF7808327478193E70708232AD2
:1011E000F780B73708009387078890431376F6EFA8
:1011F00090C3904390C390431376F6F990C3904305
:101200001366060690C390433D9A90C3904390C3E3
:1012100005661306F63FD0C323A407009043799ACE
:1012200090C3904390C390431366060890C3B737AA
:10123000080003A607891376F6F923A8C78803A632
:1012400007891366060223A8C78803A607893D9A63
:1012500023A8C78803A6078923A8C788056613069D
:10126000F6DB23AAC78803A60789799A23A8C7882B
:1012700003A6078923A8C78803A60789136606085B
:1012800023A8C78823A4B6408327078193E72700B4
:101290002328F7808327078193E717002328F78007
:1012A00005458280854763ECA70A6387F500894777
:1012B0006382F508A9C18280B75700809387C7026F
:1012C00013173500B306A7408A06BE968C4E904988
:1012D00003A8C6018546B396060193C6F6FFF18EB4
:1012E000098F0A07BA979C53B337F000B3970701E9
:1012F000D58F9CC98280B75700809387C702131788
:101300003500B306A7408A06BE968C4E904903A8C6
:10131000C6018546B396060193C6F6FFF18E098F86
:101320000A07BA979C5393B71700B3970701D58F55
:101330009CC98280B75700809387C7021317350076
:10134000B306A7408A06BE96904E144A098F0A0734
:10135000BA97D84F8547B397E700B58F1CCA8280EC
:10136000011106CE22CC26CA4AC84EC63707050050
:101370005C4F8966D58F5CCFB719050083A709C07C
:10138000F19B23A0F9C037190500832749C0F19BC1
:1013900093E727002322F9C0B714050083A784C070
:1013A000F19B23A4F4C0374408008327844093E7CB
:1013B00017002324F4408327C440F99B2326F440DC
:1013C00081450145C53583A709C093F7F7FC23A0E4
:1013D000F9C0832749C093F7F7FC93E7070223225C
:1013E000F9C083A784C093F7F7FC23A4F4C0832734
:1013F000844093E747002324F4408327C440ED9BB7
:101400002326F44081450545713DF2406244D244B3
:101410004249B24905618280411106C68945593564
:10142000B240410182804111B747080003A70780FD
:10143000799B23A0E780A9473EC6B2471387F7FFF1
:101440003AC6E5FFB747080003A7078013671700F0
:1014500023A0E7801307807323AEE78041018280D9
:10146000B7470800938707809C4713970701634A93
:101470000700B747080003A78780A166558F23A4FC
:10148000E7808280B747080003A78780E176FD16D2
:10149000758F23A4E7808280B747080003A707C0A1
:1014A000799B23A0E7C003A707C01367170023A0F9
:1014B000E7C0828089679387877F3707000203250B
:1014C000470C3385A740828001A0930785005CC14B
:1014D0007D5718C55CC51CC92320050082802328C0
:1014E000050082805C41DCC1984798C54CC38CC71D
:1014F00088C91C4185071CC182809041FD57630348
:10150000F60293078500BE86DC439843E37DE6FE42
:10151000DC42DCC18CC794C5CCC288C91C4185079C
:101520001CC182801449EDB71C495441184598C626
:10153000544154C3D8436309A700232805009843A6
:101540007D1798C3884382801845D8C3FDB7AA8702
:10155000485109C59C5B9C431D451D8D82800147F8
:101560009D4763E5E70293163700B70700029387AC
:101570000713B697BC5F99C30507DDB7B70700022D
:1015800093870713B697ACDFE8DF82808280411132
:1015900006C673700430B707000223AC070A2D3764
:1015A000411106C673700430DD37B24041018280BC
:1015B000411106C673700430D93FB24041018280A8
:1015C00019C5411106C6ED37B240410182808280C3
:1015D000370700028327C70A85072326F70A828078
:1015E000B707000203A5870A8280B707000203A598
:1015F000870A8280411106C622C426C25C45C047C4
:101600002DC89304840126850537B707000283A7F8
:10161000C70AB5E393044400268539375854B70602
:10162000000203A6060B8547B397E700D18F23A8D6
:10163000F60A370500021305051393172700BA971A
:101640008A07A6851305850B3E95693D5854B70753
:10165000000283A7C70BDC5763F8E702B707000255
:10166000054723AEE7080545B240224492444101B4
:1016700082803D3F79B7A685370500021305051323
:10168000130545148535D9B70145F9BF411106C683
:1016900022C426C22A84AE840DC93C408DEB1C4076
:1016A0008DCB185C5C5C6377F70483475404E207D6
:1016B000E187050718DC7D576381E7028507E207AC
:1016C000E187A302F40405453DA0DD35F9B7CD352A
:1016D000F9B71C44F9D7E93DE9B75C5099E30545F2
:1016E00019A813054402393701CD89CC85479CC020
:1016F000054511A00145B240224492444101828037
:101700000545D5BF0545C5BF411106C622C42A847B
:10171000B747080003A74780A166558F23A2E7803B
:10172000B70700029387071323AE07140547A3806A
:10173000E716D539B707000283A7870D9C4391CBE5
:101740002286B705000293850513938585151145FB
:101750008297B707000283A7870DC84319C1A285E6
:101760003537B74708001307007123AEE780B24052
:10177000224441018280411106C622C42A84B7470F
:101780000800938707809C4F13F7077179E313F7DD
:10179000870071E313F74700630F07203707000244
:1017A000130707130347071663170720B7470800F7
:1017B00093870780DC5313F7F70FB707000293876F
:1017C000071383A7C7158546638FD710894663988B
:1017D000D710B70700029387071383D627169307FE
:1017E000F00763EBD71A1386160042064182B7074B
:1017F0000002938707132391C716B6972385E71630
:10180000B707000283A7870D9843630A0716B70737
:1018100000029387071383D747166312F6162A86AA
:10182000B705000293850513938585150945029731
:1018300063170514B747080003A74780A166558FB3
:1018400023A2E780B70700029387071323AE07148C
:1018500079A05D3D69A03707000213070713231124
:1018600007162313071623140716230D0714A300C6
:101870000716C183858B2300F716B746080083A798
:101880004680378600FF7D16F18F4166D18F23A2F7
:10189000F6808347071685CBB707000293870713A7
:1018A0000D4723AEE714B707000283A7870D9C43BB
:1018B00095C32A86B7050002938505139385851580
:1018C0000545829701A8B7070002938707130547CC
:1018D00023AEE714B7470800214723AEE780B240A4
:1018E000224441018280B70700029387071383C611
:1018F000A7158547E3E5D7FE138616001376F60F86
:10190000B707000293870713238DC714B697238C5C
:10191000E7148947630FF60037470800832747809D
:10192000B70601FFFD16F58FC166D58F2322F7801C
:101930007DB7B707000293870713094723AEE71463
:10194000B707000283A7870D9C43F9D72A86B705FE
:1019500000029385051393858515014582974DFDFA
:10196000B747080003A74780A166558F23A2E780E9
:10197000B70700029387071323AE071471BF3747D9
:10198000080083274780B70601FFFD16F58FC16663
:10199000D58F2322F780A1B7B747080003A7478058
:1019A000A166558F23A2E780B7070002938707132C
:1019B00023AE07142DB713F727000DC33707000216
:1019C000130707130347071611CB37070002130746
:1019D00007138326C7150D47638DE60493F70702A7
:1019E000E38F07EEB70700029387071323AE0714B0
:1019F0000547A380E716B707000283A7870D9C431E
:101A000091CB2286B7050002938505139385851532
:101A10000D458297B707000283A7870DC84319C1F8
:101A2000A285AD31B74708001307000223AEE78057
:101A30007DB5B70700029387071303D7871683D7AF
:101A40006716637EF702B7070002938707139306B2
:101A500017002394D716BA9703C7A71EB7470800E5
:101A600023A4E7823747080083274780B70601FF92
:101A7000FD16F58FC166D58F2322F7808DB5B74748
:101A800008001307F00F23A4E782E9BF411106C63F
:101A900022C426C2AA84B747080003A487C193774B
:101AA0000471C1E39936B70700029387071383A730
:101AB0004727B307F540130740066364F706B707E7
:101AC000000283A7070DD84385466309D71A8946C4
:101AD0006307D72259C70147118831C0B7060002F2
:101AE0009386061383D6E626C206C18203D6470133
:101AF00063F7C602B746080003A546C2944BB70772
:101B000000029387071383D5E72613861500420644
:101B100041822397C726B387B6002380A7000DCF45
:101B20002DA0B747080003A747C09166558F23A291
:101B3000E7C01307007123AEE7C0EFF0FF95B707CA
:101B4000000283A7070D238E0700B707000283A7B3
:101B5000070DA685884F1D3EB240224492444101A4
:101B600082801377240039CB37070002130707134D
:101B70000357C7264207418383D6C7006370D70443
:101B80003707000213070713034707271377F70FD9
:101B900015E7944737070002130707138355C72635
:101BA00013861500420641822316C7263387B600E6
:101BB00083460700374708002324D7C2137704045D
:101BC0006304071637070002130707130357C726D6
:101BD0004207418383D6C7006300D702370700025C
:101BE000130707130357E7264207418383D64701AC
:101BF0006300D7060147CDB5370700021307071367
:101C0000034707271377F70F71FBB746080003A7B1
:101C100046C0370601FD1306F6BF718F23A2E6C04A
:101C2000370700021307071305462308C72603C713
:101C30000700060703D647014206B705FF006D8E71
:101C4000518F096613060640518F23A2E6C079B76B
:101C50003707000213070713034707271377F70F08
:101C6000E30C07E6B746080003A646C091654D8E13
:101C700023A2C6C08546238ED700B9BD13772400A2
:101C800031C337070002130707130357C72642075C
:101C9000418383D6C7006377D70294473707000292
:101CA000130707138355C726138615004206418282
:101CB0002316C7263387B600834607003747080038
:101CC0002324D7C21377040435C337070002130750
:101CD00007130357C7264207418383D6C70063040F
:101CE000D7000147D5BB37470800832647C0116698
:101CF000D18E2322D7C00547238EE700F1BB13778F
:101D000004041DC737070002130707130357E7260C
:101D10004207418383D647016304D70001476DBB67
:101D20000547238EE7004DBB01477DB301476DB3E7
:101D300001475DB3411106C6913BB240410182802B
:101D4000B707000283A7C7081CC1B707000283A713
:101D5000870A5CC18280B7070002054723AEE70807
:101D60008280411106C622C426C24AC0014405A091
:101D7000B707000293870713131724002297131540
:101D800027009387870B3E95EFF02FF405049947C2
:101D9000E3F087FE37040002130404131309C42779
:101DA0004A85EFF08FF2930404292685EFF0EFF1D6
:101DB00013054414EFF06FF11305442AEFF0EFF030
:101DC0001305842BEFF06FF0B707000223AA270951
:101DD000B707000223A89708B24022449244024960
:101DE00041018280411106C622C42A840859EFF0BD
:101DF0002FFD2285EFF0CFFCB240224441018280CA
:101E0000B707000283A747099C4399E7B707000279
:101E10007D5723A0E70A8280B707000283A74709FE
:101E2000DC47DC47D843B707000223A0E70A8280DB
:101E3000011106CE4AC8B707000283A7C70A6399F3
:101E4000071226CAB707000283A4870A850423A4C1
:101E5000970A9DE8B707000283A747099C43BDE3A3
:101E60003707000283264709B707000203A60709C0
:101E7000232AC70823A8D708370700028327C708E3
:101E800085072326F708AD3FB707000283A7070A97
:101E900063FBF40A0149B707000283A7C70BD857B1
:101EA00093172700BA9713972700B7070002938765
:101EB0000713BA9703A7870B854763F9E70A054914
:101EC000D2447DA8EFF0CFEE61BF0549B70700020D
:101ED00083A747099C43A5CFB707000283A74709FB
:101EE000DC47C0475C4063ECF406930944004E8530
:101EF000EFF08FE31C5489C713058401EFF0CFE2A4
:101F00005454370700020326070B8547B397D700C1
:101F1000D18F2328F70AB707000293870713139777
:101F20002600369713152700CE859387870B3E959D
:101F3000EFF04FDB5854B707000283A7C70BDC57FD
:101F4000E375F7F861B722CC4EC6014941B7B70730
:101F500000027D5723A0E70A6244B2492DBF37072C
:101F600000022320F70A6244B24935B7D24409A8D7
:101F700037070002832787098507232CF7080149C3
:101F8000B707000283A7C70991C305494A85F240F4
:101F9000424905618280B707000283A7870B91CB76
:101FA000B707000283A7C70A99C301458280094584
:101FB000828005458280630D050E411106C622C44C
:101FC0002A845455B707000283A7C70BDC5763F771
:101FD000F60C1C4D63CA0700B707000283A7C70BA6
:101FE000D8579D47998F1CCD5048B707000293875B
:101FF00007131397260036970A079387870BBA971C
:10200000630DF600B707000283A7C70BDC575CD44B
:102010000545B24022444101828026C29304440017
:102020002685EFF06FD015E95454139726003697A4
:102030000A07B707000293870713BA9783A7870B8E
:1020400089EF370700020326070B8547B397D700B0
:1020500093C7F7FFF18F2328F70AB707000283A77A
:10206000C70BD85758D4B706000203A6060B8547FE
:10207000B397E700D18F23A8F60A370500021305AE
:10208000051393172700BA978A07A6851305850BB2
:102090003E95EFF02FC505459244A5BF3845B707DB
:1020A000000283A7C70BDC576366F700014595B7AD
:1020B000014582800545B1BF5DCD411106C622C4F0
:1020C0002A84B707000283A7C70B6384A700EFF039
:1020D0002FCE7C4491CF7C44FD177CC454543844AB
:1020E000638DE60889CB0145B240224441018280DC
:1020F000EFF00FCCCDB726C2930444002685EFF055
:10210000AFC215E954541397260036970A07B7074C
:10211000000293870713BA9783A7870B89EF3707C6
:1021200000020326070B8547B397D70093C7F7FF35
:10213000F18F2328F70A384458D49D47998F1CCC37
:10214000B706000203A6060B8547B397E700D18FB9
:1021500023A8F60A37050002130505139317270075
:10216000BA978A07A6851305850B3E95EFF08FB7C2
:102170000545924495BF014582800145B5B7630A84
:10218000050E411106C622C426C24AC02A84AE8466
:102190007C459DC3032984046373990026895C549C
:1021A0006386270178448547630BF700B2402244D9
:1021B0009244024941018280EFF08FBFE1BFB7072F
:1021C000000283A7C70B6383870A54542326240382
:1021D0001C4C63C607009D47B38727411CCC504861
:1021E000B7070002938707131397260036970A074D
:1021F0009387870BBA97E31BF6FA9304440026856E
:10220000EFF08FB215E954541397260036970A075A
:10221000B707000293870713BA9783A7870B89EF45
:10222000370700020326070B8547B397D70093C7EC
:10223000F7FFF18F2328F70A5854B706000203A6C8
:10224000060B8547B397E700D18F23A8F60A370519
:1022500000021305051393172700BA978A07A6856E
:102260001305850B3E95EFF0EFA789B7EFF04FB45C
:10227000A9BF828073700430B707000283A7870B61
:1022800091CB370700028326C70BFC428507FCC2AF
:102290008327C70B8280B707000283A7870B85C7F8
:1022A000B707000283A7C70BFC4391CF3707000293
:1022B0008326C70BFC42FD17FCC28327C70BFC43D8
:1022C00099E3736004308280411106C622C426C29D
:1022D0002A84AE8421C1793F1C40545C3840338647
:1022E000E6023E9610C4232C04025CC0FD163307A0
:1022F000D702BA975CC4FD572302F404A302F40486
:102300008DE41C4899EB413F0545B240224492447C
:1023100041018280EFF0CFA97DBF13050401EFF0EA
:102320006FAD75D173000000F9BF13050401EFF024
:10233000CF9913054402EFF04F99F1B7411106C64A
:10234000AA873A8589E918C15CDD2CC18545AD3F76
:10235000B2404101828010C3C5BF411106C622C4EC
:1023600026C2AA84013F03C454046204618421A0EC
:102370007D1462046184635C8000DC5089CB13852A
:102380004402EFF02FA76DD5EFF0FF9CD5B7FD57B6
:10239000A382F4040937F93D03C444046204618450
:1023A00021A07D1462046184635C80009C4889CB19
:1023B00013850401EFF00FA46DD5EFF0DF99D5B7C9
:1023C000FD572382F404C13DB240224492444101AE
:1023D0008280411106C622C42A84693D1C5C81EBBF
:1023E0000544553D2285B24022444101828001448A
:1023F000CDBF411106C622C42A84AD3D185C5C5C89
:102400006309F7000144413D2285B2402244410165
:1024100082800544CDBF411106C622C42A84993D5D
:10242000370700028327070C85072320F70CB7071F
:10243000000283A7C70B9DC3B707000283A7870BC2
:102440009DE7B707000283A7C70BD8575C5463E02A
:10245000E702B707000223AE870A11A8B7070002F8
:1024600023AE870A0327070C85476307F70637075C
:1024700000028327470B8507232AF70A5854B7061B
:10248000000203A6060B8547B397E700D18F23A868
:10249000F60A370500021305051393172700BA97AC
:1024A0008A07930544001305850B3E95EFF08F8353
:1024B000DD33B707000283A7870B99CBB70700026C
:1024C00083A7C70BD8575C546374F70073000000F0
:1024D000B240224441018280EFF0BF8849BF4111E0
:1024E00006C622C4B707000283A7C70A9DC3593393
:1024F000B707000203A7C70A7D1723A6E70A83A729
:10250000C70AF9EBB707000283A7070C91E701445C
:10251000E9A0EFF0EF89E1BF26C24AC08144B707C6
:1025200000029387071383A74714A5C73704000247
:102530001304041383270415C44713858401EFE0B3
:10254000BFFE138944004A85EFE01FFED854B7064A
:10255000000203A6060B8547B397E700D18F23A897
:10256000F60A1304840B131527003A950A05CA8549
:102570002295EFE03FF7D854B707000283A7C70BB7
:10258000DC57E36EF7F8B7070002054723AEE7080C
:1025900079B799C0EFF0DF86B707000203A4870977
:1025A00011ECB707000203A4C70915CC73000000A3
:1025B00005449244024915A07D1411C8EFF05F87CD
:1025C00065DDB7070002054723AEE708F5B7B70793
:1025D000000223AC0708F1B7014475392285B240E7
:1025E00022444101828092440249C5BF411106C67E
:1025F00022C426C22A849377750081C7137485FF8D
:102600002104EFE0FFFCB707000283A7870C9DC7FA
:10261000B707000203A7470C3A9489679387777F2F
:1026200063E88702636987025D3D8144EFE05FF7FD
:102630002685B2402244924441018280B7170002AD
:10264000938787CFE19B370700022324F70CC9B794
:1026500079358144E1BFB707000283A4870CBA949F
:10266000B707000223A2870C9D3DF9F0C1B7011105
:1026700006CE22CC26CA4AC84EC62A89AE84B28962
:1026800005C995C8330599021305850485372A8441
:1026900001C92A87CE8613068504A6854A8579391D
:1026A0002285F2406244D2444249B24905618280A7
:1026B000EFE01FF0F9B72685C1BF411106C622C45D
:1026C00026C22A84AE840DCD9DCC6D36B70700029C
:1026D00083A6870A5C40B385F64098407D56630F19
:1026E000C7020840370600020326C6086304C50077
:1026F00063FEF60263ECE50023A00400054405A098
:10270000EFE01FEBD1B7EFE0BFEAC1B7958FBA9703
:102710009CC02285EFF0CFE2014411A00144A53E08
:102720002285B24022449244410182800544C5BFC3
:10273000B707000283A78708A1CF411106C622C4AC
:10274000153EB70700029387071383A7072BC047DF
:1027500013054400EFE05FDD370700028327070C15
:10276000FD172320F70C3707000283278708FD1782
:102770002324F708EFF03FB22285EFF0AFE6B7076A
:10278000000283A78708CDFFB24022444101828026
:102790008280411106C6693FFDBFB707000283A7CB
:1027A000C70B81CBB707000203A7C70B7C47850780
:1027B0007CC7B707000203A5C70B8280411106C67C
:1027C00022C426C24AC02A84AE84B707000203A9E5
:1027D000870AB707000203A5C70B1105EFE0DFD496
:1027E00015E1B707000283A7C70B3707000283264E
:1027F000070BD0578547B397C70093C7F7FFF58FEF
:102800002328F70AFD57630BF4024A94B707000226
:1028100083A7C70BC0C363722405B707000203A5D3
:102820000709B707000283A5C70B9105EFE0FFCCAE
:10283000B24022449244024941018280F9D4B70750
:10284000000283A5C70B9105370500021305051388
:102850001305852BEFE01FC9E1BFB707000203A5F1
:102860004709B707000283A5C70B9105EFE0FFC832
:10287000B707000283A7070AE37CF4FAB707000250
:1028800023A0870A75B7411106C622C426C2AA84AE
:102890002E840DC51DC4B707000283A7C70A8DE7A4
:1028A000EFE01FD3B707000203A5870A98403A94C8
:1028B0006375E502636DE40080C00DA8EFE05FCFB3
:1028C000D1BFEFE0FFCEC1BFEFE09FCED1BF6364C9
:1028D000850080C021A880C031A06364E4006370DB
:1028E000850280C081453305A440C93DCD3E19E134
:1028F00073000000B240224492444101828080C0B3
:10290000F5B715C9411106C622C42A84B7070002CB
:1029100083A7C70A91EFEFE0BFCB81452285793DC0
:102920007D3E19E173000000B240224441018280E3
:10293000EFE01FC8CDB7730000008280411106C6CA
:10294000130540067D3FEDBF011106CE02C6EFE044
:102950007FB62AC61305803E6D37D5BF411106C626
:1029600022C426C22A84AE840DC1B707000283A503
:10297000C70BE1052285EFE05FB8854526853D3D23
:10298000B2402244924441018280EFE07FC2F1BF15
:10299000797106D622D426D24AD02A842EC619C9E5
:1029A0003C4081EFEFF02FDF19E1B24791EB014995
:1029B000814445A0EFE0DFBFE5B7EFE07FBFDDB7C3
:1029C000EFE01FBFEDB7FD171CDC1C4081CF1C489A
:1029D00089EFEFF05F8C0545B250225492540259B2
:1029E000456182805D3B08C4DDB713050401EFE05B
:1029F0007FC065D173000000E9BF63160900EFF0E6
:102A00009F890145D1BFEFE0BFBAD5BF2808EFF0DD
:102A10002FB38544B1A02302040485A0A3020404BB
:102A2000A5A0EFF03F850844EFF0EFD82A89EFF03A
:102A30009F86BDA02285EFF05F92EFF05FAA11A8FC
:102A40002285EFF09F91EFF09FA92285EFF07F980C
:102A50002DE5EFF03F821C5CBDF7B247D9DFDDD436
:102A6000EFF07F83EFE0DFB6EFF0DF8083474404D1
:102A7000E207E1877D57E380E7FA83475404E207E2
:102A8000E1877D57E38CE7F8EFF0FF806C002808C2
:102A90002D315DF52285EFF0DF9349DD1C40D1D368
:102AA000B245130544025D3D2285EFF01F8BEFF028
:102AB0001FA345F17300000069BF631409000145BD
:102AC00021BFEFF02FFB2285EFE07FA8AA85084405
:102AD000EFF0EFEAEFF02FFCDDB7411106C622C49C
:102AE00026C24AC0AA842E89328405C5B7070002CF
:102AF00083A5C70BE1052685EFE0DF9E11C07D5958
:102B0000A2854A856539B240224492440249410176
:102B10008280EFE0FFA9D9BF411106C622C426C2B8
:102B20004AC02A84AE843289EFF0CFF4834744044C
:102B3000E207E1877D576386E70283475404E20793
:102B4000E1877D576382E702EFF0EFF41C5C85C3F9
:102B50002285EFF09F80B240224492440249410115
:102B6000828023020404D1BFA3020404F1BF4A8679
:102B7000A685130544029537E1BFB707000203A7F6
:102B8000C7071C4399E785471CC191E75C47884309
:102B900082808147D5BF01458280411106C64CC164
:102BA00008C96364B602158E1C4D6366F6000545C0
:102BB000B2404101828093054500B707000203A59A
:102BC0008707EFE09F930145E5B76374D60063FC88
:102BD000D50093054500B707000203A5C707EFE03E
:102BE000DF910145F1B70545E1B7411106C6EFF0A8
:102BF0006FE8B707000283A7470891C7EFF0AFE976
:102C0000B2404101828022C426C23704000213046C
:102C100004139304C42C2685EFE03F8B1304042E89
:102C20002285EFE09F8AB707000223AE9706B70719
:102C3000000223AC87060146C1451145EFF03FA3D2
:102C4000B707000223A2A70811C9B75500809385D2
:102C5000C517EFE0DF90224492444DB722449244DE
:102C600071BF011106CE22CC26CA4AC84EC652C434
:102C700056C2AA8AAE843289368ABA893E849DCDEC
:102C80000DC4A5372320540104CC232E4401232056
:102C9000340313054400EFE09F8463080900834771
:102CA000440293E747002302F402F2406244D24414
:102CB0004249B249224A924A05618280EFE05F8F21
:102CC000C1B7011106CE22CC26CA4AC84EC652C48C
:102CD00056C2AA842E89B289368ABA8A130580021E
:102CE000EFF0DF902A8411C923020502AA875687D4
:102CF000D2864E86CA852685AD372285F24062444B
:102D0000D2444249B249224A924A05618280411125
:102D100006C622C42A8419C9EFF0CFD5404CEFF083
:102D20008FD72285B240224441018280EFE05F8844
:102D3000E5B7411106C6E13F01C50841EFE0CFED1F
:102D4000B24041018280B70700029387071323AA8C
:102D5000072E23AC072E23AE072E8280638B05122D
:102D6000011106CE22CC26CA4EC6AA89AE84328470
:102D7000630306124AC8EFE0BF862A8923100400C5
:102D8000B70700029387071383A7C72FB307F54040
:102D90001307800C6361F704B707000293870713DA
:102DA00023AE272F83A7472F0947638CE708636962
:102DB000F702BDC305476392E70293071004639EC1
:102DC000F906B707000293870713094723AAE72EDE
:102DD00001454249D1A0853FC1B7014542496DA88F
:102DE0000D476398E702B70700029387071303D7DD
:102DF000A72F93061700239DD72EBA942380340162
:102E000003D7A72F83C7872F637FF7060145424962
:102E100061A00145424949A0930710046385F90068
:102E20000145424995A8B707000293870713054754
:102E300023AAE72E0145424985A031370145424981
:102E4000A1A8B707000293870713238C372F239D70
:102E5000072E9307000463EE370163800902B7076A
:102E60000002938707130D4723AAE72E0145424925
:102E700025A0D13D0145424905A023100400E135BC
:102E80000545424911A82310F400753D0545424906
:102E900021A0014582800145F2406244D244B249FA
:102EA0000561828063010516411106C622C42A8489
:102EB0001C41638F0712B707000223ACA70C13064F
:102EC00040118145370500021305051313058515CB
:102ED000EFD04FE05C4063810712B707050013078E
:102EE0000040D8CFB7170500938707C0D4433707F2
:102EF000F4FF7D17F98ED4C3D44337060C00D18E6E
:102F0000D4C39447758F98C7984798C7D443370759
:102F1000D0FF7D17F98ED4C3D44337063000D18E4D
:102F2000D4C39447758F98C7984798C79843B706F6
:102F3000C4FFFD16758F98C39843B7060400558FDC
:102F400098C39843B7061000558F98C3B747080039
:102F5000938707809843799B98C39843FD76FD1625
:102F6000758F98C398438566558F98C39843FD76AF
:102F70009386F60F758F98C398431367073098C3ED
:102F800023A80700984B98CB984BB706C000558FE5
:102F900098CB984BB7060A00558F98CB9843B70645
:102FA000FDFFFD16758F98C3D843B70600FFFD16C9
:102FB000758FD8C39843C166558F98C3D843B70659
:102FC0000001558FD8C39843B706F8FFFD16758FDB
:102FD00098C323A40700034784000607A166558F02
:102FE00098C7B7070500938707401307000498C3E5
:102FF000B2402244410182800D4681450545EFF0F3
:103000000FE748C0D9BD8280B707000283A7870DAC
:10301000B9C3411106C613064011814537050002A8
:103020001305051313058515EFD0CFCAB747080060
:103030001307807323AEE78003A707801367E70FAA
:1030400023A0E78003A707801367170023A0E7806A
:10305000B24041018280828039C5411106C622C436
:1030600026C22E84B287B68429C2B1C213070004D7
:103070006361B704130710042300E600A300E60011
:103080002301B60091E90D04239084000545B24068
:1030900022449244410182802E86AA8513853700FE
:1030A000EF10105CCDB7014582800145CDB70145D9
:1030B000F9BF0145E9BF411106C622C426C24AC074
:1030C0002A84B2840329850330411DE21C4199CB37
:1030D0000145930719001CDCB24022449244024986
:1030E000410182800845EFE03FFD23240400D5B76D
:1030F00099EC4841EF10D0565C403840BA975CC01C
:10310000184463EFE7021C405CC02685D9B74845E8
:10311000EF1010555C443840B306E040998F5CC412
:10312000184063F5E7001C44B6975CC48947638484
:10313000F400014579BF630709007D19014551BFBE
:10314000268541BF014571B7397106DE22DC26DADA
:103150004AD84ED62A84AE8932C6B68409CD638F4A
:10316000090089476381F402EFE0FFE219E1B24709
:1031700095E3014951A0EFE0AFC3D5B73C40F5D38B
:10318000EFE00FC3F9BF585C8547E30FF7FCEFE0B2
:103190002FC2D9BFEFE0CFC1E9BF2686CE852285F9
:1031A000193F5C5091EF19C173000000EFF0AF8E32
:1031B0000545F2506254D2544259B259216182807D
:1031C00013054402EFE00FC375D173000000F9BF8F
:1031D000EFF06F8C0145F1BF2808EFE07FB605499D
:1031E0000DA82302040499A0A3020404B9A0228517
:1031F000EFF0AF96EFF0AFAEEFF0CF87185C5C5C0E
:10320000E36DF7F88947E38AF4F8B247F1D3E305B1
:1032100009FCEFF04F88EFE0AFBBEFF0AF858347DD
:103220004404E207E1877D57E38DE7FA83475404BE
:10323000E207E1877D57E389E7FAEFF0CF856C007D
:103240002808EFF08FC71DE12285EFF08F9A45D156
:10325000B24513050401EFF06FF02285EFF0EF8F18
:10326000EFF0EFA751F97300000079B72285EFF076
:10327000CF8EEFF0CFA601452DBF0DC90357050432
:103280009307000463F4E70001458280411106C6FC
:1032900081460146AA85B707000203A547106D3590
:1032A0007D1513351500B2404101828001458280B1
:1032B000011106CE2AC42EC6814601462C00B7074E
:1032C000000203A5070E49357D1513351500F240A0
:1032D00005618280011106CE2AC64DC122CC2E8402
:1032E0001C4DCDC38307050063C1070A5C41054738
:1032F0006386E70209476389E704D9EB1C45C1CF20
:103300001C49C9CF8357C500C9CF4147636EF70831
:103310008357450181EF0145624495A01C45C1CB0F
:103320008357C500C1CB41476369F70881462286B0
:103330006C00B707000203A5470D39358547630FB9
:10334000F5000145624425A81C49BDCB83574501C2
:10335000BDCB1C45E1DF0145624415A0A285B24703
:10336000884FEFF0EFE285476305F50001456244C1
:1033700039A0B24703C5C701624411A00145F2401C
:103380000561828001456244DDBF01456244C5BFDD
:1033900001456244EDB701456244D5B70145624439
:1033A000F9BF01456244E1BF01456244C9BF01451F
:1033B0006244F1B701456244D9B701456244C1B7DF
:1033C000014562446DBF0145624455BF31C9397141
:1033D00006DE22DC2A840345850009E5F2506254AA
:1033E0002161828093D785002306F102A306B102F2
:1033F000834704002306F10085473EC87C103ECA7F
:103400008947231CF10002CE231001025C443ED206
:10341000230401024C406800753DA304A4007DBF55
:10342000014582801DC1411106C622C42A848347FA
:10343000850081EBA30405000145B240224441010F
:1034400082806937A304A400CDBF0145828005C5F1
:10345000411106C622C42A840345850009E5B2400D
:103460002244410182808D659385250A2285B93FDA
:10347000A304A400EDB701458280411106C622C411
:103480000DC595C62300B50050C154C5854723041A
:10349000F500753F2A8411E52285B240224441019E
:1034A00082800545EFF0EFC5C5BF0144F5B7014483
:1034B000E5B721CD397106DE22DC2A84034585007B
:1034C00001C531C691E60145F25062542161828006
:1034D00093D785002306F102A306B10283470400B7
:1034E0002306F10002C87C103ECA8947231CF10064
:1034F00032CE2310D1025C443ED2230401024C4060
:103500006800C93BA304A400C1B7014582800145FE
:1035100065BF797106D626D219CD22D44AD04ECEB7
:103520002A84AE8932898347850081EFA304050090
:1035300022540259F24981442685B2509254456181
:10354000828002C42316010099463000B965953780
:10355000AA8459C189452800EFD0BF998347A100AB
:10356000631BF50089451305B100EFD09F98834791
:10357000D1006309F500A3040400814422540259D8
:10358000F2495DBF03478100834791002207D98F2D
:103590008346B1000347C100A206558F638E090020
:1035A0009306606DB387D702C166FD16B3C7D70215
:1035B0009387E7E32390F900630409029307803EB1
:1035C0003307F702C167FD173347F7022310E900FD
:1035D00022540259F2498DB722540259F249A9BF27
:1035E00022540259F24989BF797106D622D426D2D3
:1035F0004AD04ECEEFD0DFFE2AC60D4681450545A6
:10360000EFF0EF86B709000223ACA90E0D46814505
:103610000545EFF0CF8537090002232AA90E3704AC
:103620000002130404139304043083A6890F1306C5
:10363000400693054004268589351304043183260A
:10364000490F130640069305500422853D358965D0
:10365000938545332685F9338965938545332285DE
:10366000D1332315010023140100EFD07FF765A0AB
:10367000370500021305051313050532EFD07F9BB4
:10368000814601468145B707000203A5070FEFF009
:10369000BFAB61A8B707000293874700238A0700E2
:1036A0002382070289659385453337050002130598
:1036B000051313050530EFF0FFD6D5A0B7070002BC
:1036C0009387470003D7870383D6A7033307D7021F
:1036D000420741838356A1003697239BE702035795
:1036E00081002393E7040547238AE7022382E70446
:1036F000C0DFE0C789460146B70500029385450053
:10370000B707000203A5C70EEFF01FA49305803E84
:103710006800EFF04F97FD55B707000203A5070FAC
:10372000EFF00FA78547E305F5F4EFD07FEB370403
:1037300000021304041303576435B707000293878C
:1037400047002393E700034784352382E700C8C777
:10375000EFD01FE9AA8430009305A10013050430BF
:10376000EFF03FDB05D9B70700029387470003D787
:10377000870183D6A7013307D702420741838356C7
:10378000A1003697239BE700035781002393E702AC
:103790000547238AE7002382E702C4CFC4D7EFD0CE
:1037A0003FE42A8430009305A10037050002130589
:1037B000051313050531EFF0DFD5E31105F0B70769
:1037C000000293874700238A070223820704896542
:1037D000938545333705000213050513130505319D
:1037E000EFF05FC401BF411106C6B74708009387D9
:1037F00007C09C4F13970701634A070622C437048A
:103800000002130404132316042623170426230896
:103810000426EFD0FFDC232AA426B747080003A71D
:1038200047C0B7A600FC93860680758F23A2E7C029
:10383000B707000283A7070DD84385466307D7045F
:1038400089466306D70649EB03C70700060783D7F7
:10385000C700C207B706FF00F58FD98F0967D98F58
:10386000374708002322F7C0224429A8B7070002DF
:1038700083A7070D238E0700814601468145884FA7
:10388000EFF09F8CB2404101828003C7070006071A
:1038900083D7C700C207B706FF00F58FD98F096726
:1038A000D98F374708002322F7C02244E1BF03C75E
:1038B0000700060783D74701C207B706FF00F58F49
:1038C000D98F3727000213070740D98F37470800E1
:1038D0002322F7C022447DB722446DB7411106C6AA
:1038E0008145B707000203A5C70CEFF06F8A854733
:1038F0006306F5000145B24041018280B7470800E8
:103900001307001098C3814601468145B70700029E
:1039100003A5C70CEFF05F830545F1BF411106C653
:103920008145B707000203A5C70CEFF06F868547F6
:103930006306F5000145B24041018280B7470800A7
:1039400013070010D8C3814601468145B70700021E
:1039500003A5C70CEFF04FFF0545F1BF0DC14111A5
:1039600006C62324050023200500232605008146E2
:1039700001468145EFF04FFDB240410182808280D7
:10398000411106C622C42A8681450545EFE03FCE97
:103990002A84E9372285B2402244410182804111C4
:1039A00006C60545F13FB707000223A6A70C3DC197
:1039B000370705005C4F8566D58F5CCFB7170500CC
:1039C00083A607C03707FDFF7D17F98E23A0D7C058
:1039D00083A647C0F98E23A2D7C083A647C0370667
:1039E0000300D18E23A2D7C083A687C0758F23A4DE
:1039F000E7C0B747080098471367071098C7D8472C
:103A00001377F7EFD8C713070010D8C30545B240A6
:103A1000410182800145E5BF011106CE22CC26CAB4
:103A20004EC652C42A84AE89328AB6840DC56387D5
:103A3000090289476389F402185C5C5C636CF702D5
:103A400089476389F4020145F2406244D244B24995
:103A5000224A05618280EFD0BFB5D1BF3C40F1DB87
:103A6000EFD01FB5F9B7585C8547E307F7FCEFD0F7
:103A70003FB4D9B74AC8034954046209135989416C
:103A80002686CE852285EFF00FE3FD57630BF90004
:103A90000509620913598941A302240505454249D4
:103AA00065B75C5081E70545424979BF130544027B
:103AB000EFD05FB409C9630B0A0085472320FA00E1
:103AC0000545424951B705454249BDBF05454249F3
:103AD000A5BF011106CE22CC2A84B7270800938700
:103AE0000780DC4FB98B89EFB727080093870780E1
:103AF000DC4F93F7070289EFF24062440561828050
:103B0000B7270800394723AEE780EFF0CFA3E9BF1E
:103B1000B727080093870780DC53A307F10081468D
:103B200022869305F100B707000203A5C710ED3503
:103B3000E1B7797106D622D426D24AD04ECE52CCE5
:103B40002A84AE843289B6893A8A1DC9B707000231
:103B500003A5470839CD26C04AC222C4954763CE83
:103B60009702EFE04FC38947630FF5008146014696
:103B70008A85B707000203A54708EFF0EFDC15A020
:103B8000EFD01FA3E1B7814652868A85B7070002AE
:103B900003A54708EFF04FDB29A081464E868A85B2
:103BA000A53DB250225492540259F249624A4561ED
:103BB00082800145FDB7411106C622C426C22A846F
:103BC000AE8408450DC5014781462E86914595373F
:103BD00044C40044EFD0DFA02A86014781468545D2
:103BE0002285813FB240224492444101828037378E
:103BF0000080130727D3A28605463755008013059A
:103C00004518EFF00F8C08C4E1B735CD411106C659
:103C100022C426C22A84AE845C416388B704084566
:103C200011C50147814601468D45213744C089476A
:103C30006382F40463EB97008DC485476397F402B5
:103C400085450840EFD00FE60DA08D47639FF40037
:103C500085450840EFD00FE59305401F2285A13F21
:103C600029A081450840EFD0EFE3B24022449244BE
:103C70004101828085450840EFD0CFE293054006A0
:103C80002285153FDDB78280411106C622C426C2B7
:103C90004AC0AA842E89B707000283A7C707DC475A
:103CA000C04713054400EFD03F888347440213F711
:103CB000470009EFF99B2302F4021C5022858297EA
:103CC000B240224492440249410182800C4CA686B3
:103CD0004A86A6952285EFE05FEC65D101478146D3
:103CE000268681452285EFF0DFE461F9EFD05F8C15
:103CF000E9B7B707000283A7C707984349C741112F
:103D000006C622C426C24AC0DC4703A90700C04732
:103D1000930444002685EFD03F811C502285829772
:103D200083474402918B9DE7B707000283A7C7072B
:103D3000984379FB3707000203268707B70600027E
:103D400023AEC606232CF706B24022449244024911
:103D5000410182801C4CCA97637CF9005CC000C89A
:103D6000A685B707000203A5C707EFD00FF96DBFFF
:103D7000014781464A8681452285EFF09FDB4DF55C
:103D8000EFD01F8355B73707000203268707B70612
:103D9000000223AEC606232CF7068280411106C618
:103DA00022C426C2AA84EFD0BF832A84B7070002A8
:103DB00083A74707636EF50023A00400B70700023E
:103DC00023AA87062285B240224492444101828080
:103DD0000D3785479CC0DDB7011106CE22CC4AC8FD
:103DE0002A892E84EFD0CFFE68004D3FB247A1EB69
:103DF00026CAAA841DE8637225032286B30599406A
:103E0000B707000203A54708EFE01FD1EFE02FED51
:103E100015ED73000000D2442DA0EFE04FECA68515
:103E20004A85EFF07FE6D24429A83707000203272E
:103E30008707184319E30544C9B73E847DBFEFE007
:103E40000FEAF2406244424905618280D244D5BF04
:103E5000AA87304115C2411106C62E85D847329730
:103E6000D8C794476364D7009843D8C7CC47EF00BE
:103E7000307FB240410182808280397106DE22DCCF
:103E800026DA4AD84ED62A84AE8932C611C9638C46
:103E90000900EFE04F9019E1B24799EB014959A0B1
:103EA000EFD00FF1EDB73C40EDD7EFD06FF0D5B7C5
:103EB000EFD00FF0E5B7CE852285593FFD1404DC25
:103EC0001C4899EBEFE02FBD0545F2506254D254E7
:103ED0004259B2592161828013050401EFD08FF15C
:103EE00075D173000000F9BFEFE0EFBA0145F1BFF3
:103EF0002808EFD0FFE4054935A82302040481A86F
:103F0000A3020404A1A82285EFE02FC5EFE02FDD76
:103F100011A82285EFE06FC4EFE06FDC2285EFE0AF
:103F20004FCB35E5EFE00FB5045CD1F4B247CDDF00
:103F3000E30009FCEFE02FB6EFD08FE9EFE08FB39D
:103F400083474404E207E1877D57E388E7FA834724
:103F50005404E207E1877D57E384E7FAEFE0AFB36B
:103F60006C002808EFE06FF54DF52285EFE06FC695
:103F700059D9B24513054402EFE05F9E2285EFE078
:103F8000CFBDEFE0CFD559FD7300000061BF014503
:103F90002DBF357106CF22CD26CBA3070108814462
:103FA0007DA0A287138417007D47636FF702014647
:103FB0009305F108B707000203A5C710EFF0FFEB68
:103FC00085476313F5027001EC000345F108EFE04B
:103FD000FFD861D981460146EC00B707000203A56E
:103FE0000711EFF06F9675BFB707000283A7871020
:103FF000A1EFA1C0B70600029386061037060002A3
:10400000130606131306C635835581042800EFF006
:10401000AF841DC9B707000283D50710370500021A
:10402000130505131305C535EFC01FD911CD814404
:1040300021A801462C00B707000203A54710EFF0A6
:10404000DFE385476307F5001545EFE09F8B814768
:1040500091BF854445B70DC1411106C6AA850146E9
:10406000B707000203A50711EFF03FE17D151335F7
:104070001500B24041018280014582801DC5AA879A
:1040800011476376B702370700020325C70E15C133
:10409000411106C60146BE85EFF03FDE8547630C41
:1040A000F5000145B2404101828001458280014511
:1040B0008280014582800545F5B71D7186CE954504
:1040C0000A856D3F21E5F640256182801397160031
:1040D00036970E07B707000293870713BA9713970F
:1040E0004600130707050A97032807FB832547FBAC
:1040F000032687FB0327C7FB23A207018CC7D0C772
:1041000098CB85069147E3D3D7FC75BF8146DDBFC9
:10411000357106CF22CD26CBEFD08FCC9304853ED0
:10412000EFC08FD1593FEFE03FEE85450545EFF0F9
:104130002F9885450145EFF0AF971305401FEFE03D
:104140004FFC81450545EFF0AF9681450145EFF005
:104150002F9641A8EFD00FB3EFF03FF6EFD04FB05E
:10416000814601468145B707000203A54712EFE0EB
:10417000BFFD41A005041374F40F854763E4870273
:104180002800EFF05FED7DD5954637060002130657
:104190000613EC002800EFC0BFB069DDE800EFF0C7
:1041A000CF8DC9BFEFD0CFC32A8463689502EFC01B
:1041B000AFD131C1EFF08FF289450145EFF04F8F5C
:1041C000EFC0AFCD21C18D450545EFF06F8EE80002
:1041D000EFC05FBD0DED9304843E13054006EFE094
:1041E0004FF2A945B707000203A54712EFE04FFAC7
:1041F00035F1014459B7EFF06FF281450145EFF019
:104200002F8B7DBF81450545EFF08F8AC9B7E80048
:10421000EFF0AF86C9B7011106CE39A00547638C10
:10422000E7022945EFE0EFED7D562C00B7070002CD
:1042300003A5070EEFF07FC48547E314F5FEA24700
:10424000F1FFB24537050002130505131305053AC2
:10425000EFF0BF9BF9B7B2453705000213054500E3
:1042600013050505EFF07F9A6DBF411106C622C404
:1042700019A0EFF04FD77D56B70500029385050DC5
:10428000B707000203A5470DEFF03FBF8547E314D2
:10429000F5FEB7470800938707C09C4F13970701A7
:1042A000E35907FC370400028327040D238E07001F
:1042B000EFD08F9E8327040D814601468145884FAC
:1042C000EFE09FE84DBF797106D621A0C24763D4C5
:1042D000070201460C08B707000203A54708EFF0E4
:1042E000DFB963020510C247E3D207FEF24562451B
:1042F000D2478297E1BF22D426D262445C4889C764
:1043000013054400EFD04FA26800EFF03FA9AA8444
:10431000C24725476363F70C8A07375700801307A6
:104320004700BA979C4382878347440293E717006C
:104330002302F402D2460C4C2A86B6952285EFE081
:10434000DF8559CD1C502285829783474402918B8B
:1043500081E722549254B5BF1C4C01478146524616
:104360003E9681452285EFF0CFFC01C52254925440
:104370008DB7EFD0EFA322549254A1BF83474402DC
:10438000F99B2302F40222549254A1B783474402BA
:1043900093E717002302F402D2471CCC99CB0C4CB4
:1043A000A6862686A6952285EFE02FFF22549254FA
:1043B0000DB7EFD0EF9FE5B78347440213F727000F
:1043C00019C7F99B2302F4022254925419B722858B
:1043D000EFD00F9F22549254EDBD22549254D5BD7C
:1043E00022549254FDB5B25045618280011106CE2F
:1043F0006800EFE08FF8B245EFF01F9EEFF0BFECE2
:10440000C5BF011106CE22CC26CA4AC84EC62A8490
:10441000AE84328911CD85C0832984036392090259
:104420000145F2406244D2444249B249056182806A
:10443000EFD00F98CDB73C40E5D3EFD06F97E9BFF1
:1044400052C4034A4404620A135A8A41A68522854B
:10445000EFF01FA0FD19232C3403FD57630BFA0066
:10446000050A620A135A8A41230244050545224A75
:104470004DBF1C4881E70545224A65B71305040175
:10448000EFD04F9709C9630B090085472320F90036
:104490000545224A79B70545224A61B70545224AB2
:1044A00049B7411106C622C426C24AC0AE84328929
:1044B0001307D5FF854763EBE702B7070002239B8D
:1044C0000710B7070002239A0710239604002395CC
:1044D00004000544B707000283C78711E9E7228576
:1044E000B240224492440249410182802A8481459B
:1044F000B707000203A54712EFF0BFF0854763102E
:10450000F50CB70700020547238CE7108947630EB7
:10451000F40663E6870215C885476310F4029546E2
:104520003706000213060613A685B707000203D557
:104530006711EFC04FBF2A8471BF054461BF751476
:104540008547E3FC87F6054471B783C7040003C5BC
:104550001400A2075D8DB7070002239BA710370642
:104560000002231A06102395040023960400130664
:1045700046119545EFC06F9A2A8429DDB7070002DE
:1045800083D747112396F400B1B79546370600024A
:1045900013060613A685B707000203D56711EFC0FF
:1045A000AFDF2A8405BFCA85B707000203A54712FB
:1045B000EFD0CF8DB7070002238C07100DB7014451
:1045C00039BFB7570800BC4791E38280411106C646
:1045D00022C42A842A868145B707000203A5070F53
:1045E000EFF03FE285476306F500B2402244410107
:1045F0008280B7570800EC47C205C1813705000229
:104600001305051313050532EFC0FF9CA285B707FC
:10461000000203A5070FEFD06F87C1BF011106CEBF
:1046200002C6F32750303EC6B2478D8B91EFEFC0E4
:10463000CFE385679387078073A04730EFB05FCCE7
:104640000145F24005618280EFC09FF6CDB70111B0
:1046500006CE22CC26CA4AC84EC652C456C25AC03A
:10466000AA8AAE843289368BBA893E8A42840A0687
:104670009305500A03250803EFB0DFE51C58370700
:1046800000407D173A990A093E99137989FFC9C4F8
:1046900081483D48636E18013388140103480800BF
:1046A00033031401230A0303630408008508D5B704
:1046B000A3010404994763F337019949232634037E
:1046C000232434052326040413054400EFC03FE1EE
:1046D00013058401EFC0BFE000C89D47B387374191
:1046E0001CCC40D02322040423280404230A0404FD
:1046F0005A86D6854A85EFB0BFD008C063040A0049
:1047000023208A00F2406244D2444249B249224AFC
:10471000924A024B05618280230A040261BF7971CB
:1047200006D626D24AD04ECE52CC56CA5AC82A896C
:10473000AE89B284368ABA8A3E8B13152600EFD032
:10474000FFEA39C122D45EC62A8413058005EFD062
:10475000FFE9AA8B1DC100D981482A88DA875687CC
:10476000D2862686CE854A85EFF07FEE5E85EFD035
:104770009FCA05452254B24B09A82285EFC05FE4C9
:104780007D552254B24B11A07D55B250925402591E
:10479000F249624AD24A424B45618280411106C6C3
:1047A00081470547814613060020B7550080938551
:1047B00045193745008013050511EFF05FF6854771
:1047C0006306F5000145B240410182800545EFF0E6
:1047D0002F9BB707000223A2A71231C50D468145C2
:1047E0000545EFD0DFE8AA87370700022320A7128C
:1047F0000DCD37070002130707131305073BB70654
:10480000000223AEA61093060004230CD73AB74645
:1048100000809386264A2328D73A232AF73AEFE0E6
:104820006FE805454DB7014579BF014569BF4111A5
:1048300006C622C42A840146930520041545EFD0FC
:104840001FE3B707000223A2A71001469305200427
:104850001545EFD0DFE1B707000223A8A7100146F6
:1048600085454145EFD0BFE0B707000223A6A7105A
:10487000B70700029387C70F094781461306001048
:10488000B75500809385051A37450080130525F933
:10489000EFF0FFE80DC5B707000283A7071195C326
:1048A000B707000283A7471099CF2285EFC0AFD783
:1048B000EFC02FE20545B24022444101828001450C
:1048C000DDBF0145CDBF0145FDB7411106C601461B
:1048D000A1451545EFD0BFD9B707000223A0A70E09
:1048E00005CDB70700029387C70D09478146130618
:1048F0000008B75500809385C51A37450080130519
:104900006521EFF0DFE109E50145B2404101828018
:10491000EFC01FA50545D5BF0145C5BF411106C65E
:10492000014691450545EFD09FD4B707000223AA61
:10493000A70C81470947814613060010B755008030
:104940009385851B374500801305A526EFF03FDDD5
:10495000856793870780370705005CCFB717050089
:10496000938707C0944B370700FD7D17F98E94CBD2
:10497000944B37060003D18E94CBD44B758FD8CB94
:10498000D84BB70500014D8FD8CB944B370700F4B7
:104990007D17F98E94CB944B3706000CD18E94CBB7
:1049A000D44B758FD8CBD84B37060004518FD8CB5A
:1049B000D847B70600F1FD16758FD8C7D8474D8F79
:1049C000D8C7D847518FD8C7B7470800938707C0C3
:1049D0009843799B98C39843FD76FD16758F98C3CD
:1049E00098438566558F98C39843FD769386F60F56
:1049F000758F98C3984398C323A80700984BB706B0
:104A00000010558F98CB984BB7064000558F98CB28
:104A1000984BB7060400558F98CB984B9566558FE9
:104A200098CB984B1367070598CB98438176FD1672
:104A3000758F98C31307600D98C313078073D8CF81
:104A400037070500930600082320D74098431367D3
:104A5000170098C3B24041018280411106C622C4AA
:104A60001306803E9305B00C3705000213050513AD
:104A700013050532EFC0EFD72A8411E52285B24035
:104A80002244410182800545EFE09FEFB707000215
:104A900023A8A70E0146930500050545EFD03FBDAD
:104AA000B707000223A6A70E014689450945EFD0A6
:104AB0001FBCB707000223A4A70EB7070002938705
:104AC000470E0947814613060010B75500809385AD
:104AD000C51B373500801305855EEFF05FC405C147
:104AE000B707000283A7870E89CFB707000283A705
:104AF000C70E91CBEFC0CFE0EFF05FE241B70144CA
:104B0000B5BF0144A5BF014495BF411106C622C4EB
:104B1000EFE0AF8DB707000283A7470885CFB7073F
:104B20000002938707081947814613060008B75506
:104B300000809385851C374500801305C53EEFF046
:104B40001FBE2A8419E1EFC0BFA62285B2402244CD
:104B5000410182800144C5BF411106C6B70700026A
:104B60009387470A0147814613060008B75500801E
:104B70009385051D3725008013052579EFF03FBA91
:104B800085476308F500FD57630DF502B24041010A
:104B90008280EFF09FF78547E317F5FE73700430CE
:104BA000B70700027D5723A0E70AB70700020547B1
:104BB00023ACE70AB707000223A4070AEFF01FA6F9
:104BC000F1B7EFC0FF9ED9B7411106C6B707008005
:104BD0009387070073905730EFC06F850965130501
:104BE0000558EFF0DFC419E1EFC06F87EFE03FDB5E
:104BF00019E1EFC0CF86EFF05FCD19E1EFC02F864E
:104C0000EFF0BFE519E1EFC08F8581471947814675
:104C100013060004B75500809385851D3735008045
:104C20001305C593EFF0BFAF85476304F500EFC0F0
:104C30000F8381470147814613060004B755008062
:104C40009385C51D3735008013058594EFF03FAD82
:104C500085476304F500EFC08F80EFF03FB419E1A2
:104C6000EFB0FFFFEFF05FEFEFB07FFFB70700029D
:104C700083A7C70A99C7B7070002054723AEE7080D
:104C80008280411106C622C4B707000223AE07087E
:104C9000B707000203A5070BEFB09F917D44098C75
:104CA0001317240022970A07B707000293870713F8
:104CB000BA9783A7870BA1CFB70700029387071383
:104CC00013172400B30687008A06BE9603A6C60BF8
:104CD000504223AEC60A9387870B22970A07BA97DA
:104CE000A1076309F6021317240022970A07B707E2
:104CF000000293870713BA9783A7C70BD847B70754
:104D0000000223AEE70AB240224441018280EFC094
:104D10003F8A5DB754421317240022970A07B7074A
:104D2000000293870713BA9723AED70A6DBF01110C
:104D300006CE02C6B707050093870740DC4F1397DE
:104D4000270063400706B7070500938707409C5379
:104D50001397370163410706B7070500938707409C
:104D60009C5393F70704A5E3B70705009387074013
:104D70009C5393F70708B5E3B707050093870740EF
:104D80009C53918BADE7B7070500938707409C5371
:104D90001397B70063460706B247A5EFF2400561D7
:104DA00082806800EFF0FF81B70705003707002019
:104DB00023ACE74049BFEFC0CFB0B7070500056798
:104DC00023ACE74051BF6800EFC0FF9AB70705006A
:104DD0001307000423ACE74041BF6800EFC09FF514
:104DE000B70705001307000823ACE74071B7680058
:104DF000EFE03FCEB7070500114723ACE74061B7AE
:104E0000EFC06F80B70705003707100023ACE740FD
:104E100061B7EFF0BFE559B7411106C6F32720345B
:104E200093F6F7001D476394E60063C70700EFF0B1
:104E30001FF0B24041018280B7074900984BD04B28
:104E4000A166938606D0BA9633B7E600329794CB24
:104E5000D8CBEFC0FFFD71DDEFF05FE1D9BF0000FF
:104E6000B3C7A50093F73700B308C50063940706DE
:104E70009307300063F0C7069377350013070500EA
:104E8000639A070613F6C8FFB306E64093070002CD
:104E900063CED70893860500930707006378C7029F
:104EA00003A80600938747009386460023AE07FFBA
:104EB000E3E8C7FE9307F6FFB387E74093F7C7FF22
:104EC000938747003307F700B385F5006368170140
:104ED00067800000130705006378150583C7050088
:104EE0001307170093851500A30FF7FEE398E8FE5C
:104EF0006780000083C6050013071700937737000B
:104F0000A30FD7FE93851500E38E07F683C6050031
:104F10001307170093773700A30FD7FE938515006B
:104F2000E39A07FC6FF01FF667800000130101FF92
:104F3000232681001304000283A3050083A24500F9
:104F400083AF850003AFC50083AE050103AE450105
:104F500003A3850103A8C50183A605021307470221
:104F6000B307E640232E77FC232057FE2322F7FFCA
:104F70002324E7FF2326D7FF2328C7FF232A67FE22
:104F8000232C07FF232ED7FE93854502E346F4FA30
:104F900093860500930707006378C70203A80600FD
:104FA000938747009386460023AE07FFE3E8C7FEDA
:104FB0009307F6FFB387E74093F7C7FF9387470050
:104FC0003307F700B385F500636817010324C100B8
:104FD000130101016780000083C705001307170054
:104FE00093851500A30FF7FEE382E8FE83C7050053
:104FF0001307170093851500A30FF7FEE39EE8FC47
:105000006FF0DFFC284300802843008028430080A5
:105010007C4300808C430080B8430080284300809C
:10502000284300807C4300808C4300800000000007
:10503000000000000000000000000100000000006F
:105040000000FFFF00440800000000000000000016
:10505000000C0500040C0500080C0500020000000F
:10506000004408000200000000000000000C0500E1
:10507000040C0500080C05000200000000010202FB
:1050800003030303040404040404040405050505E0
:1050900005050505050505050505050506060606BC
:1050A00006060606060606060606060606060606A0
:1050B000060606060606060606060606070707078C
:1050C0000707070707070707070707070707070770
:1050D0000707070707070707070707070707070760
:1050E0000707070707070707070707070707070750
:1050F000070707070707070707070707080808083C
:10510000080808080808080808080808080808081F
:10511000080808080808080808080808080808080F
:1051200008080808080808080808080808080808FF
:1051300008080808080808080808080808080808EF
:1051400008080808080808080808080808080808DF
:1051500008080808080808080808080808080808CF
:1051600008080808080808080808080808080808BF
:10517000080808080808080808080808546D72514B
:10518000000000004C6564426C696E6B54696D658B
:1051900072000000764170705461736B0000000073
:1051A00055617274545F5461736B00004C45445FE9
:1051B0004354524C00000000493243004273705F78
:1051C00053435F5461736B00546D722053766300D8
:1051D00049444C4500000000574454004865617044
:1051E0004D6F6E69746F72000000000000000000D7
:1051F000F00C0002040000000000000000000100AC
:1052000000000000010000000000000028000A006B
:1052100000000000030000000000000000000A0081
:1052200000000000010000000000000028000A004B
:1052300000000000030000000000000000000A0061
:10524000000000000100000000000000000000005D
:10525000000000000000000000000000000000004E
:040000058000000077
:00000001FF
