:020000040100F9
:100000003741000213010100B70100029381010092
:10001000B7150001938505D737160001130606DAD8
:10002000B70600029386060039A083A2050023A02C
:10003000560091059106E3EAC5FEB70500029385D7
:100040000503370600021306060421A023A00500BD
:100050009105E3EDC5FEB7000001E7804007B7005A
:100060000001E7804007B7100001E78020CF730050
:100070005010F5BF8280000000000000000000006A
:100080000000000000000000000000000000000070
:100090000000000000000000000000000000000060
:1000A0000000000000000000000000000000000050
:1000B0000000000000000000000000000000000040
:1000C0006F004000197106C20AC40EC612C816CAD3
:1000D0001ACC1ECE22D026D22AD42ED632D836DA48
:1000E0003ADC3EDEC2C0C6C2CAC4CEC6D2C8D6CA78
:1000F000DACCDECEE2D0E6D2EAD4EED6F2D8F6DA28
:10010000FADCFEDE970000009380E00482909240CB
:100110002241B2414242D2426243F24302549254DB
:100120002255B2554256D2566257F2570648964863
:100130002649B649464AD64A664BF64B065C965C5B
:10014000265DB65D465ED65E665FF65F096173004A
:10015000203001A05D71A2C4370400021305040021
:1001600086C6A6C2EF00101313050400EF00103777
:10017000854513050400CD2893374500B307F040AB
:10018000AA84894513050400FD8CF928937725007E
:100190002A8689E7136625001376F60FA6851305D0
:1001A0000400FD28E1689388086A014881470147F7
:1001B00081460146B705203813050400EF0090265C
:1001C000E16838009388086A130800028147854671
:1001D0000146B70599EB1305040023040100EF0065
:1001E0007024B7170001938707D5D0439447D847A9
:1001F0008C439C4B93040400416532C836CA3ACC08
:100200002AD432D836DA90403ADC2EC63ECE2ED6EC
:100210003EDEB70607009C423707F1FF32D07D175C
:10022000054632D2F98F08109CC2EF00F00AB640A2
:100230002644964461618280E1689388086A014897
:100240008147014781460146B70520066F00901D92
:10025000E1689388086A0148814701478146014661
:10026000B70520506F00101C011106CEA307010036
:1002700089476384F502B7052005E1681307F1009B
:100280009388086A0148814785460146EF00901926
:10029000F2400345F10005618280B7052035F1BFCA
:1002A0002206E168011133E3C5009388086A01481A
:1002B0008147014781460146B705200606CE22CC7C
:1002C00026CA4AC8AA8423166100EF00B015E16867
:1002D0009388086A01487C00014789460146B78532
:1002E0002001268509646169EF00D013130414719D
:1002F0001309096A09A8A3050100EF00B01283479A
:10030000B100858B85C77D14CA88014881471307D2
:10031000B10085460146B7052005268569FCF240F7
:100320006244D24442490D4505618280F2406244F4
:10033000D24442490145056182802206E1680111EB
:1003400033E3C5009388086A014881470147814625
:100350000146B705205006CE22CC231661002A8420
:10036000EF00500CE1687C0022859388086A014800
:10037000014789460146B7852001EF00B00AF240E7
:10038000624405618280AE88014881470147814609
:100390000146B74520056F00F0087971E16822D465
:1003A0004AD02E8432894ECE9388086AB689014895
:1003B0008147014781460146B705200606D626D269
:1003C000AA84EF003006E168CA8622869388086A0C
:1003D0000148CE870147B78580022685616461693F
:1003E000EF0050041304146A1309096A09A8A3074B
:1003F0000100EF0030038347F100858B89CF7D1426
:10040000CA88014881471307F10085460146B705B0
:100410002005268569FCB250225492540259F249B3
:10042000456182800111E16822CC9388086A2E849C
:1004300001488147014781460146B705200606CE9F
:1004400026CA4AC8AA84EF00E07DE1682286938824
:10045000086A0148814701478146B7058020268503
:1004600061646169EF00007C1304146A1309096A6E
:1004700009A8A3070100EF00E07A8347F100858B0C
:1004800089CF7D14CA88014881471307F10085464A
:100490000146B7052005268569FCF2406244D24436
:1004A000424905618280E16836879388086AB2868E
:1004B00001482E868147B7058003ADA70111E16889
:1004C00038009388086A0148814789460146B70584
:1004D000809006CE23140100B127F240035581001D
:1004E000056182807971E16822D44AD02E843289F4
:1004F0004ECE9388086AB6890148814701478146F4
:100500000146B705200606D626D2AA84212FE16827
:10051000CA8622869388086A0148CE870147B78534
:100520008832268561646169F52D1304146A130904
:10053000096A01A8A3070100F5258347F100858B0F
:1005400089CF7D14CA88014881471307F100854689
:100550000146B7052005268571FCB25022549254FD
:100560000259F24945618280E16836879388086ABA
:10057000B28601482E868147B705896B65A5E1687B
:1005800036879388086AB28601482E868147B70568
:1005900093EB49AD0111E1681307F1009388086AF4
:1005A0000148814785460146B705200506CE22CC85
:1005B00026CA2A84A3070100B525E1688344F10017
:1005C0001307F1000146B705203522859388086A94
:1005D000014881478546A3070100A9250346F1008C
:1005E00022856244F240A685D24413662600056146
:1005F00045B90111E1681307F1009388086A0148C1
:10060000814785460146B705200506CE22CC26CA7D
:100610002A84A30701003925E1688344F100130708
:10062000F1000146B705203522859388086A014804
:1006300081478546A3070100F5230346F100228583
:100640006244F240A685D2441376D60F056189B97B
:10065000B747080093870740630DF50EB7570800AA
:10066000938707806308F500374708006300E510AB
:1006700005458280B71E0500371E050037130500AB
:10068000938E0EC2130ECEC1130383C103A80500BF
:100690000147854F0D4F91426307080A93131700D6
:1006A0003396EF00B3177F00B376060193C7F7FFC9
:1006B000D9C6411122C6C041832603009378340075
:1006C000FD8EB3987800B3E616012320D3006306AD
:1006D000540611E010C583260E0083A8C50090457E
:1006E000FD8EB3987800B3E616012320DE0083A8C0
:1006F0000E00B3167600B3F71701D58F23A0FE00C6
:100700000507B357E800B1C3931317003396EF0002
:10071000B3177F00B376060193C7F7FFF5D2C04148
:100720008326030093783400FD8EB3987800B3E6F7
:1007300016012320D300E31E54F850C569BF0507F6
:10074000B357E800A1FF01458280324401454101D1
:100750008280B71E0500371E050037130500938EF3
:100760004EC1130E0EC11303C3C00DB7B71E050053
:10077000371E050037130500938E8EC0130E4EC032
:10078000130303C021B7B7470800938707406306E8
:10079000F50AB7570800938707806308F5003748C4
:1007A00008006309050B05458280371E05003713D5
:1007B0000500B7180500130E0EC21303C3C19388BA
:1007C00088C1638F0516411122C691476301F60A5D
:1007D0006312061005448D4313181600B31EC4009F
:1007E000B39703010506B3FFD501B312070193C701
:1007F000F7FF3398060133DFC500638A0F0283AF2A
:100800000800B3FFFF0023A0F8012324D501832EA5
:100810000300B3FED701B3EE5E002320D301832E85
:100820000E00B3F7D701B3E707012320FE00E3155D
:100830000FFA3244014541018280371E050037130B
:100840000500B7180500130E4EC1130303C19388AA
:10085000C8C085BF371E050037130500B71805004F
:10086000130E8EC0130343C0938808C099BF01487C
:1008700005448D4313161800B31E0401B397C3003B
:100880000508B3FFD501B312C70093C7F7FF33962E
:10089000C60033DF050163890F0283AF0800B3FF91
:1008A000FF0023A0F8012326D501832E0300B3FE09
:1008B000D701B3EE5E002320D301832E0E00B3F7E1
:1008C000D701D18F2320FE00E3160FFA32440145F1
:1008D00041018280014805448D430D8A9317180019
:1008E000B31E04013395F3000508B3FEBE00B31236
:1008F000F600B31FF7001345F5FFB397F60033DF9B
:10090000050163890E0283AE0800B37ED501B3EE04
:100910005E0023A0D801832E0300B37ED501B3EE81
:10092000FE012320D301832E0E003375D5015D8D8A
:100930002320AE00E3140FFA3244014541018280C6
:100940000145828008416D8D3335A000828019E217
:100950004CC182800CC182801C49AD8F1CC9828031
:10096000135745009D4763EFE708B707000283A8C8
:10097000070313182700BD46B396060113C6F6FFFA
:100980003376160123A8C70203A607033315050112
:10099000758D518D23A8A70283A70703B7560800BA
:1009A00013F6150023A2F6C08547938606C0B397B9
:1009B000E7000DE69CD213F725000DC73757080056
:1009C000232AF7C09189375708008DC52322F7C223
:1009D0003757080001452326F7C08280DCCE13F785
:1009E000250069FF37570800232CF7C09189375736
:1009F0000800E9FD2324F7C23757080001452326E4
:100A0000F7C082800545828011819D4763E2A7047B
:100A10008546B7570800B396A60023A8D7C0370667
:100A20000002832506030A053D473317A700134735
:100A3000F7FF6D8F2328E60203270603014523A253
:100A4000E7C023ACD7C023A0D7C223A4D7C28280DB
:100A500005458280B757080083A687C01357450015
:100A600005453315E500758D3335A0008280375775
:100A70000800832607C011818547B397A700F58F2B
:100A800033D5A7008280B75708001307F00F23A6BD
:100A9000E7C28280011106CE22CC02C402C62147E1
:100AA000B707050037550800D8C705448A858D4724
:100AB000130505803EC022C2613E375508008A8575
:100AC0009307C0031305058022C222C43EC04936E5
:100AD000F240624405618280411122C406C62A8424
:100AE000553F1840104454405C4F93E707015CCFDA
:100AF00010CB1C439DC6B7061000D58F1CC35C48A5
:100B00000C4C034604018346C401CE07D605CD8FA5
:100B10004206B2402244D18FE206D58F1CCF41015C
:100B20008280B706F0FFFD16F58F1CC3C9BF83A8EE
:100B3000C50083AE050103230500B7031800CE08E6
:100B400083A2050003CF450103CE8500832FC30197
:100B5000B3F87800D60EB703E000B3FE7E00B3E82A
:100B6000D801B3E8580083AE4500620FB70507000F
:100B7000420E93EF0F02232EF301337EBE00B3E843
:100B8000E801939526012324C300C98133E6C801F7
:100B9000D18D2326D3012322B3009315060163D2FE
:100BA000050491CAB5CFBE9603C707008507230A7F
:100BB000E300E39BF6FE630308061C417D18DC4F4F
:100BC00093F70702EDDB1165718D19C9B7070700AF
:100BD00083C74701137586001D8D3335A0008280C1
:100BE0008280F1DA15CF83484301854593071700CA
:100BF000230017013697E380B6FC1441850783C6AE
:100C00004601A38FD7FEE388E7FA1441850783C620
:100C10004601A38FD7FEE392E7FE71BF0D458280A8
:100C20000545828003230500032EC301136E0E02C7
:100C3000232EC301139E26012324C30013562E0125
:100C40004D8E232603012322C30013960501635210
:100C5000060491CAB5CFBE9603C707008507230ACD
:100C6000E300E39BF6FE638308061C41FD18DC4F9E
:100C700093F70702EDDB11656D8D19C9B707070002
:100C800083C7470113F585001D8D3335A000828091
:100C90008280F1DA15CF0348430105469307170018
:100CA000230007013697E380C6FC1441850783C6FD
:100CB0004601A38FD7FEE388E7FA1441850783C670
:100CC0004601A38FD7FEE392E7FE71BF0D458280F8
:100CD000054582801C41C84F058982801C414147DF
:100CE000D8CF82801C41C84F11811345150005895A
:100CF00082804111B707000106C622C4938707000E
:100D0000739057303707050091675CCFA1475CCBE4
:100D10005447B71705003704000293E6860054C70E
:100D20001307505523ACE7C01307005023A0E7C2B8
:100D3000130504008533130504004D37EFF08FC110
:100D4000B70000808290B2402244410182800000BE
:100D50002000000001000000030000000600000069
:100D6000EB00000000000000000000000000000098
:100D7000000007000000000000000000000000006C
:100D80000000000000000000000000000000000063
:100D90000000000000000000000000000000000053
:0400000501000000F6
:00000001FF
